:020000040800F2
:1000000008350120E5080008310400083304000821
:10001000370400083B0400083F040008000000000B
:10002000000000000000000000000000290200089D
:100030004304000800000000850200084554000841
:10004000FF080008FF080008FF080008FF08000874
:10005000FF080008FF080008FF080008FF08000864
:10006000FF080008FF080008FF080008FF08000854
:10007000FF080008FF080008FF080008FF08000844
:10008000FF080008FF080008FF080008FF08000834
:10009000FF080008FF080008FF080008FF08000824
:1000A000FF080008FF080008FF080008FF08000814
:1000B000FF080008FF080008FF080008FF08000804
:1000C000FF080008FF080008FF080008FF080008F4
:1000D000FF0800085B080008FF080008FF08000888
:1000E000FF080008FF080008FF080008FF080008D4
:1000F000FF080008FF080008FF080008FF080008C4
:10010000FF080008FF080008FF080008FF080008B3
:10011000FF080008FF080008FF080008FF080008A3
:10012000FF080008FF080008FF080008FF08000893
:10013000FF080008FF080008FF080008FF08000883
:10014000FF080008FF080008FF080008FF08000873
:10015000FF080008FF080008FF080008FF08000863
:10016000FF080008FF080008FF080008FF08000853
:10017000FF080008FF080008FF080008FF08000843
:10018000FF080008FF08000800F002F800F03CF843
:100190000AA090E8000C82448344AAF10107DA45E2
:1001A00001D100F031F8AFF2090EBAE80F0013F0F8
:1001B000010F18BFFB1A43F001031847F055000068
:1001C00010560000103A24BF78C878C1FAD85207F8
:1001D00024BF30C830C144BF04680C6070470000C1
:1001E0000023002400250026103A28BF78C1FBD840
:1001F000520728BF30C148BF0B6070471FB505F0DC
:10020000CFFA1FBD10B510BD05F084FA1146FFF7F7
:10021000F5FF00F069F805F0B6FA03B4FFF7F2FF56
:1002200003BC00F0B7FA00002C4B19680868B0E86E
:10023000F04F80F30988BFF36F8F4FF0000080F319
:10024000118870470000000008480068006880F3CB
:1002500008884FF0000080F3148862B661B6BFF3DF
:100260004F8FBFF36F8F00DF00BF00BF08ED00E0CE
:10027000DFF80C00016841F470010160704700BFB5
:1002800088ED00E0EFF30980BFF36F8F134B1A681E
:100290001EF0100F08BF20ED108A20E9F04F10600B
:1002A00009B44FF0500080F31188BFF34F8FBFF3B4
:1002B0006F8F02F0F6FF4FF0000080F3118809BC49
:1002C00019680868B0E8F04F1EF0100F08BFB0ECD6
:1002D000108A80F30988BFF36F8F704730000020C9
:1002E000EFF305807047000000244FF4A06000F099
:1002F00019FBA82000F0CCF94FF4E13000F057FAD8
:1003000000F0A8F94BE02648008800F40040E8B16E
:100310002348067823A005F0F7F800250DE02648CD
:10032000415D264801F000F900BF4021234801F05B
:10033000ABF90128F9D1681CC5B2B542EFDB20A0AA
:1003400005F0E2F800201649088028E0601C84B21D
:1003500041F2883094FBF0F100FB114028B91AA05B
:1003600005F0D2F825A005F0CFF8C82094FBF0F1F5
:1003700000FB114010B926A005F0C6F81E2094FB22
:10038000F0F100FB114038B92848006808B9012095
:1003900000E00020254908600A2000F0DBF9B2E700
:1003A0001C0000200D0AC4FAB7A2CBCDB5C4CFFB08
:1003B000CFA2CEAA3A0D0A00AC00002000100140E6
:1003C0000D0A0D0A000000000D0A204D63756465DA
:1003D000762EC7B6C8EBCABDBFAAB7A2CDF8535494
:1003E0004D333246343037BFAAB7A2B0E520B4AEA1
:1003F000BFDACAB5D1E90D0A00000000C7B6C8EBE4
:10040000CABDBFAAB7A2CDF80D0A0D0A0D0A000099
:10041000C7EBCAE4C8EBCAFDBEDD2CD2D4BBD8B34F
:10042000B5BCFCBDE1CAF80D0A00000098024042CC
:10043000704700BFFEE700BFFEE700BFFEE700BF5A
:10044000FEE770470CB500200190009076480068E8
:1004500040F480307449086000BF7348006800F4BD
:10046000003000900198401C0190009818B9019844
:10047000B0F5A04FF1D16C48006800F4003010B125
:100480000120009001E0002000900098012846D152
:1004900065484030006840F0805063494031086052
:1004A0006248006840F44040604908605E48083097
:1004B00000685D49083108600846006840F4004063
:1004C00008600846006840F4A05008605848091FBA
:1004D0000860081F006840F08070091F086000BFB6
:1004E0005148006800F000700028F9D040F2057013
:1004F000504908604C480830006820F003004A4921
:10050000083108600846006840F00200086000BF3B
:1005100045480830006800F00C000828F8D10CBDF0
:1005200010B54548006840F47000434908603E48F3
:10053000006840F001003C49086000203A49083159
:100540000860394800683D490840374908603C4820
:10055000091D0860081F006820F48020091F08603A
:10056000002031490C310860FFF76CFF4FF000604C
:1005700031498039086010BD70B500200022022387
:1005800000240221284D08352D6805F00C0020B10B
:10059000042806D0082834D107E02A4D2A4E3560B9
:1005A00033E02A4D284E35602FE01F4D2D1D2D685C
:1005B000C5F380541C4D2D1D2D6805F03F0154B12D
:1005C000224DB5FBF1F5184E361D3668C6F3881678
:1005D00005FB06F209E01B4DB5FBF1F5124E361D89
:1005E0003668C6F3881605FB06F20F4D2D1D2D68E3
:1005F000C5F301456D1C6B00B2FBF3F5124E35607F
:1006000003E0104D104E356000BF00BF064D0835A9
:100610002D68C5F303150E4E705D0B4D2D68C5405A
:10062000094E356070BD0000003802400070004087
:1006300008544007003C024088ED00E0FFFFF6FE52
:10064000103000240024F4000000002000127A0082
:10065000040000201CB50121084600F0F7FCC02072
:10066000009001208DF8040000208DF80600032082
:100670008DF8050001208DF807006946034800F059
:1006800047FAC021014800F0BFFA1CBD000002403B
:1006900010B504466FF0040000F096F9E11704EB82
:1006A0005171C1F3C701394A11701046007800EB4F
:1006B0004001C1EBC0104FF6FF7101EAC0003449A0
:1006C000088010BD0146314A12784A434FF0E023BA
:1006D0005A6100229A611A46126942F001021A61B7
:1006E00000BF4FF0E022106900F001021AB100F4DF
:1006F0008032002AF5D04FF0E022126922F0010288
:100700004FF0E0231A6100229A6170470146204AA7
:1007100012884A434FF0E0235A6100229A611A4638
:10072000126942F001021A6100BF4FF0E022106925
:1007300000F001021AB100F48032002AF5D04FF027
:10074000E022126922F001024FF0E0231A61002238
:100750009A61704770B504464FF4077094FBF0F04F
:10076000C6B24FF4077094FBF0F100FB114085B264
:1007700005E04FF40770FFF7C9FF701EC6B2002EE8
:10078000F7D115B12846FFF7C1FF70BD1400002056
:100790001600002000BF704700BF4E4A128802F0CA
:1007A0004002002AF9D0C2B24A4B9A80704710B575
:1007B00088B004460121084600F048FC01211020C1
:1007C00000F09EFC07220921434800F02CFA072282
:1007D0000A21414800F027FA4FF4C0600690022039
:1007E0008DF81C008DF81D0000208DF81E000120E2
:1007F0008DF81F0006A9384800F08AF902940020FD
:10080000ADF80C00ADF80E00ADF81000ADF8140016
:100810000C20ADF8120002A92E4800F0D2FD0121F3
:100820002C4800F056FE40212A4800F03AFF0122F1
:1008300040F22551274800F002FF25208DF80400E2
:1008400003208DF805008DF8060001208DF80700C3
:1008500001A800F06CF808B010BD10B540F22551A9
:100860001C4800F027FF10B31A4800F061FEC4B224
:100870001A48008800F40040C8B91848008800F4FD
:10088000804060B10A2C03D000201449088020E089
:100890001248008840F400401049088019E00D2CEF
:1008A00006D10E48008840F480400C49088010E0D2
:1008B0000A480088C0F30D0009490C540748008815
:1008C000401C0649088008460088C72801DD002032
:1008D000088010BD00100140000002401C000020F4
:1008E000AC0000200948804709480047FEE7FEE7C2
:1008F000FEE7FEE7FEE7FEE7FEE7FEE7FEE7FEE7D0
:1009000004480549054A064B7047000021050008C8
:1009100089010008082F0120083501200831012035
:100920000831012032490143324A1160704770B5E5
:10093000002100230F22C4781CB32E4C246804F439
:10094000E064C4F5E064C4F30721C1F10404E3B238
:100950000A4144789C40E1B28478144021430C075A
:10096000210E254C05786155047804F01F050124FB
:10097000AC4005786D11AD0005F1E025C5F80041EA
:1009800009E0047804F01F050124AC401B4D0678F3
:10099000761145F8264070BD194A0A400243154BAE
:1009A0001B1F1A60704739B1124A121D12680243A8
:1009B000104B1B1D1A6006E00E4A121D126882437E
:1009C0000C4B1B1D1A607047042808D14FF0E02122
:1009D000096941F004014FF0E022116107E04FF096
:1009E000E021096921F004014FF0E0221161704714
:1009F0000000FA050CED00E000E400E080E100E01A
:100A000080FFFF1F10B504469848844208D1012199
:100A1000084600F086FB0021012000F082FB76E012
:100A20009348844208D10121022000F07AFB002182
:100A3000022000F076FB6AE08E48844208D1012152
:100A4000042000F06EFB0021042000F06AFB5EE051
:100A50008948844208D10121082000F062FB00216E
:100A6000082000F05EFB52E08448844208D1012156
:100A7000102000F056FB0021102000F052FB46E051
:100A80007F48844208D10121202000F04AFB002148
:100A9000202000F046FB3AE07A48844208D1012148
:100AA000402000F03EFB0021402000F03AFB2EE009
:100AB0007548844208D10121802000F032FB0021DA
:100AC000802000F02EFB22E07048844208D10121F2
:100AD000801500F026FB0021A01500F022FB16E097
:100AE0006B48844208D10121401500F01AFB002117
:100AF000601500F016FB0AE06648844207D1012128
:100B0000001500F00EFB0021201500F00AFB10BDBF
:100B1000F0B50A4600210023002400BF3DE0012576
:100B200005FA01F3156805EA03049C4234D105680F
:100B30004F000326BE40B543056015794E00B54011
:100B40000668354305601579012D02D01579022D0F
:100B500016D185684F000326BE40B54385605579A0
:100B60004E00B540866835438560456801268E4055
:100B7000B5434560456896798E40B6B235434560C9
:100B8000C5684F000326BE40B543C560D5794E0009
:100B9000B540C6683543C560491C1029BFD3F0BDB8
:100BA0004FF6FF7101600021017141718171C171C6
:100BB000704708B54FF480320092009A0A430092C1
:100BC000009AC261C161009AC261C2690092C269A1
:100BD000009208BD0246002013690B400BB10120B2
:100BE00000E0002070470146086980B27047024665
:100BF000002053690B400BB1012000E0002070473A
:100C00000146486980B2704701837047418370474D
:100C10000AB1018300E04183704741617047426936
:100C20004A4042617047F0B5002300244D07ED0EA5
:100C300002FA05F3CE1000F1200555F826504E07B4
:100C4000F70E0F26BE40B543CF1000F1200646F840
:100C50002750CE1000F1200555F8265045EA030430
:100C6000CE1000F1200545F82640F0BD00000240FE
:100C70000004024000080240000C02400010024044
:100C80000014024000180240001C024000200240F4
:100C90000024024000280240F948006840F00100AA
:100CA000F74908600020F64908310860F4480068F8
:100CB000F4490840F2490860F348091D0860F34808
:100CC000EF4984310860F0481038091D0860EC488D
:100CD000006820F48020EA4908600020E8490C31CF
:100CE0000860E7498C31086070470021E44A921C93
:100CF000117011460870704710B50146002200239C
:100D000000204A11012A02D1DD4C236808E0022AA2
:100D100003D1DB4C7034236802E0D94C743423686F
:100D200001F01F02012494401C400CB1012000E09E
:100D3000002010BD38B5002000900024002500BF21
:100D40003120FFF7D9FF05460098401C009000981D
:100D5000B0F5A04F01D0002DF2D03120FFF7CCFF2D
:100D600008B1012400E00024204638BD01460020DF
:100D7000C34A106820F0F80040EAC10010607047D4
:100D8000C349086070470021BD4A7032117011706C
:100D9000012802D004280AD104E00121B84A7032A7
:100DA000117005E00521B64A7032117000E000BFF5
:100DB00000BF7047B7490860704770B5049C41EAAE
:100DC00082150126C6EB530645EA0645054345EA6A
:100DD0000465AB4E361D356070BDAD490866704781
:100DE000820142EA0172A64B84331A607047A84917
:100DF0008866704710B5830143EA016343EA0273D2
:100E00009F4C8834236010BDA14908677047A049F2
:100E1000C864704702460020994B0833186820F0D8
:100E2000EC6042EA01031843954B083318607047A1
:100E300002460020924B0833186820F0784042EABE
:100E4000010318438E4B0833186070470146002099
:100E50008B4A0832106820F0030008431060704786
:100E600087480830006800F00C00704701460020F9
:100E7000834A0832106820F0F00008431060704781
:100E8000014600207E4A0832106820F4E0500843F2
:100E90001060704701460020794A0832106820F43B
:100EA000604040EAC10010607047F0B500210022A8
:100EB0000024022500260223714F08373F6807F0FF
:100EC0000C0121B1042905D0082937D105E0724F62
:100ED000076036E0714F076033E0694F3F1D3F68A0
:100EE000C7F38056664F3F1D3F6807F03F036EB162
:100EF0006A4FB7FBF3F7DFF888C10CF1040CDCF89C
:100F000000C0CCF3881C07FB0CF40CE0624FB7FB6D
:100F1000F3F7DFF86CC10CF1040CDCF800C0CCF383
:100F2000881C07FB0CF4564F3F1D3F68C7F3014771
:100F30007F1C7D00B4FBF5F7076002E0564F0760A9
:100F400000BF00BF4E4F08373F6807F0F0010909A6
:100F5000534F7A5C0768D7404760494F08373F686E
:100F600007F4E051890A4E4F7A5C4768D7408760A2
:100F7000434F08373F6807F46041490B484F7A5C9C
:100F80004768D740C760F0BD002100F44072B2F559
:100F9000407F0AD13A4A0832116821F4F811414AD7
:100FA00002401143364A08321160354A70321268E5
:100FB000C0F30B031A43324B70331A607047354944
:100FC00044390860704733494039086070473649F2
:100FD0000860704701460020294A8C32106820F0D2
:100FE0001F004A1E1043264A8C321060704701468B
:100FF0000020234A8C32106820F4F8504A1E40EA40
:1010000002201F4A8C3210607047014600201C4AA3
:101010008C32106820F4401008431060704701467D
:101020000020174A8C32106820F4400008431060FA
:10103000704701460020124A8C32106820F440307C
:1010400008431060704719490860704739B10C4A6D
:101050003032126802430A4B30331A6006E0084A05
:10106000303212688243064B30331A607047F9B150
:10107000034A343212680243014B34331A601CE0D5
:1010800000380240FFFFF6EA103000240030002054
:1010900000004742800E47420024F40000127A000C
:1010A0001E000020FFFCFF0F5C014742E011474299
:1010B0008F4A126882438E4B1A60704739B18C4A4E
:1010C000121D126802438A4B1B1D1A6006E0884AF3
:1010D000121D12688243864B1B1D1A60704739B17E
:1010E000834A0C3212680243814B0C331A6006E0CB
:1010F0007F4A0C32126882437D4B0C331A60704772
:1011000039B17B4A103212680243794B10331A60AE
:1011100006E0774A103212688243754B10331A602A
:10112000704739B1724A243A12680243704B243B2B
:101130001A6006E06E4A243A126882436C4B243BE4
:101140001A60704739B16A4A203A12680243684B04
:10115000203B1A6006E0664A203A12688243644BDC
:10116000203B1A60704739B1614A1C3A1268024349
:101170005F4B1C3B1A6006E05D4A1C3A12688243D2
:101180005B4B1C3B1A60704739B1594A143A1268DC
:101190000243574B143B1A6006E0554A143A126852
:1011A0008243534B143B1A60704739B1504A103A8E
:1011B000126802434E4B103B1A6006E04C4A103A4C
:1011C000126882434A4B103B1A60704739B1484A53
:1011D0001C3212680243464B1C331A6006E0444A34
:1011E0001C3212688243424B1C331A60704739B17B
:1011F0003F4A2032126802433D4B20331A6006E01A
:101200003B4A203212688243394B20331A607047C0
:1012100039B1374A243212680243354B24331A60FD
:1012200006E0334A243212688243314B24331A6079
:10123000704739B12E4A2C32126802432C4B2C33A2
:101240001A6006E02A4A2C3212688243284B2C335B
:101250001A60704739B1264A303212680243244B73
:1012600030331A6006E0224A303212688243204B43
:1012700030331A607047012808D11D493C31096894
:1012800041F008011A4A3C32116007E018493C312C
:10129000096821F00801164A3C321160704739B1E3
:1012A000134A273A12780243114B273B1A7006E083
:1012B0000F4A273A127882430D4B273B1A7070472A
:1012C0000B484030006840F08070094940310860A8
:1012D000704701460020064A283A12680A400AB1BF
:1012E000012000E00020704701492639087070474E
:1012F0003438024010B50446FA48844208D101212E
:101300001020FFF752FF00211020FFF74EFF57E09B
:10131000F548844209D101214804FFF735FF002137
:101320004FF40030FFF730FF4AE0F048844209D123
:1013300001218804FFF728FF00214FF48020FFF7E8
:1013400023FF3DE0EA48844209D10121C804FFF7A8
:101350001BFF00214FF40020FFF716FF30E0E548A7
:10136000844209D101210805FFF70EFF00214FF447
:101370008010FFF709FF23E0DF48844208D10121F4
:101380002020FFF712FF00212020FFF70EFF17E0BB
:10139000DA48844209D101218807FFF7F5FE0021D0
:1013A0004FF08040FFF7F0FE0AE0D548844207D1B5
:1013B00001214005FFF7E8FE00216005FFF7E4FE8C
:1013C00010BD2DE9FF4705460E460024A14600BF8B
:1013D000A046B08900B100BF2C8A24F44054F088A4
:1013E00004432C82AC8941F20C608443B08831897B
:1013F0000843718908430443AC81AC8A24F44074E7
:10140000B0890443AC826846FFF74FFDB54885427A
:1014100002D0B948854202D1DDF80C9001E0DDF838
:101420000890A88900F4004040B109EBC90000EB26
:10143000091031684900B0FBF1F707E009EBC9007A
:1014400000EB091031688900B0FBF1F76420B7FBAD
:10145000F0F004012009642101FB1078A88900F450
:10146000004040B1322000EBC800B0FBF1F000F0CA
:101470000700044308E0322000EB08106421B0FBB1
:10148000F1F000F00F0004432C81BDE8FF874FF41A
:101490001651016000218180C18001810C214181B0
:1014A00000218181704710B502460020108A20F487
:1014B00070600B884C8823438C882343CC8823435B
:1014C0001843108210BD0021018041808180C180BD
:1014D000704721B1828942F40052828104E08289FE
:1014E0004DF6FF731A4082817047028B02F47F42EF
:1014F0000283028B0A430283704721B1828942F43E
:101500000042828103E08289C2F30E028281704729
:1015100021B1828A42F40062828204E0828A4FF220
:10152000FF731A4082827047C1F3080282807047BD
:1015300001468888C0F308007047028A4FF6F073AE
:101540001A400282028A0A430282704721B18289CC
:1015500042F00202828104E082894FF6FD731A4054
:101560008281704782894FF2FF731A40828182899B
:101570000A4382817047028A4FF6DF731A40028263
:10158000028A0A430282704721B1028A42F48042F1
:10159000028204E0028A4BF6FF731A40028270470F
:1015A000818941F001018181704721B1828A42F035
:1015B0000802828204E0828A4FF6F7731A40828220
:1015C0007047028BD2B20283028B42EA012202836D
:1015D000704721B1828A42F02002828204E0828A2E
:1015E0004FF6DF731A408282704721B1828A42F03F
:1015F0001002828204E0828A4FF6EF731A408282E0
:101600007047828A4FF6FB731A408282828A0A43AD
:101610008282704721B1828A42F00202828204E013
:10162000828A4FF6FD731A40828270471AB1838A0C
:101630000B43838202E0838A8B4383827047F0B539
:101640000346002400260025002040F66A17B94210
:1016500000D100BF1846C1F3421401F01F06012754
:1016600007FA06F5012C01D10C3004E0022C01D15F
:10167000103000E014301AB107682F43076002E011
:101680000768AF430760F0BD02460020B1F5007F58
:1016900000D100BF13880B400BB1012000E00020F7
:1016A000704701F40072B2F5007F00D100BFCA4359
:1016B0000280704770B502460024002300250020F8
:1016C00040F66A16B14200D100BFC1F3421501F0E5
:1016D0001F03012606FA03F3012D13D19689334027
:1016E00017E00000001001400044004000480040A6
:1016F000004C0040005000400014014000780040C1
:10170000007C0040022D02D1168A334001E0968A07
:1017100033400C12012606FA04F41688344013B143
:101720000CB1012000E0002070BD10B500220023A4
:1017300040F66A14A14200D100BF0A12012494406D
:10174000A3B2DC43048010BD00F1080141604FF0FA
:10175000FF31816000F10801C16001610021016079
:10176000704700210161704742684A6093688B604E
:10177000936859609160086103685B1C036070475F
:1017800010B502460B685C1C0CB9106907E002F149
:10179000080000E04068446824689C42FAD9446824
:1017A0004C604C68A160886041600A611468641CE8
:1017B000146010BD01460A69D1E901309860D1E991
:1017C000010358605068884201D188685060002049
:1017D00008611068401E1060106870472DE9F041E4
:1017E00005460E4601272C4654B900BF502080F311
:1017F0001188BFF34F8FBFF36F8F00BF00BFFEE7AD
:10180000002C42D0E06B00283FD04FF0FF31E06B5E
:10181000B1FBF0F0216C884237D303F0D0FDD4E95E
:101820000F12206801FB0200A0600020A063206866
:101830006060E06B401E226C216800FB0211E160D9
:10184000FF2084F8440084F845009EB9206908B957
:10185000012000E00020A8B904F1100002F01CF9FA
:1018600080B14FF08050F6490860BFF34F8FBFF34F
:101870006F8F07E004F11000FFF766FF04F124000A
:10188000FFF762FF03F0C2FD00E000270FB1012067
:1018900000E0002050B900BF502080F31188BFF352
:1018A0004F8FBFF36F8F00BF00BFFEE73846BDE824
:1018B000F0812DE9F04106460D4617469846069CF4
:1018C0000DB9246000E02760E6632564012120460D
:1018D000FFF784FF84F84C80BDE8F0812DE9F843E0
:1018E00005460E4617460024E5B1601EB0FBF5F034
:1018F000B04217D305FB06F010F1510F12D805FBCB
:1019000006F808F1500003F02AFB0446B4B1A146E2
:1019100009F150093B464A46314628460094FFF7F4
:10192000C8FF0BE054B900BF502080F31188BFF30B
:101930004F8FBFF36F8F00BF00BFFEE72046BDE8AB
:10194000F88370B5044603F03AFD94F9455010E071
:10195000606A08B9012000E0002038B904F12400D1
:1019600002F09AF818B102F00FFA00E003E0681EE6
:1019700045B2002DECDC00BFFF2084F8450003F0E9
:1019800045FD03F01CFD94F9445010E0206908B9AE
:10199000012000E0002048B904F1100002F07CF8BA
:1019A00008B102F0F1F9681E45B200E001E0002D37
:1019B000ECDC00BFFF2084F8440003F027FD70BD7D
:1019C00070B5054603F0FBFCA86BE96B884201D1BA
:1019D000012400E0002403F019FD204670BD2DE92C
:1019E000F04104460F4615464FF00008A66B206CE8
:1019F00048B9206800282CD1A06802F053FA80462C
:101A00000020A06025E07DB93946226C606803F0B3
:101A100087FD216C606808446060D4E90101884258
:101A200017D32068606014E03946226CE06803F048
:101A300077FD216CE068411AE1602168E068884226
:101A400003D2216CA068411AE160022D01D106B1D8
:101A5000761E701CA0634046BDE8F0812DE9FF436F
:101A600083B0064688461D464FF00009344654B9F7
:101A700000BF502080F31188BFF34F8FBFF36F8FEB
:101A800000BF00BFFEE7B8F1000F01D1206C08B91C
:101A9000012000E0002050B900BF502080F31188E1
:101AA000BFF34F8FBFF36F8F00BF00BFFEE7022D64
:101AB00002D1E06B012801D1012000E0002050B9E3
:101AC00000BF502080F31188BFF34F8FBFF36F8F9B
:101AD00000BF00BFFEE702F069F908B9059808B930
:101AE000012000E0002050B900BF502080F3118891
:101AF000BFF34F8FBFF36F8F00BF00BFFEE700BF84
:101B000003F05DFCA06BE16B884201D3022D28D16C
:101B10002A4641462046FFF762FF0746606A08B939
:101B2000012000E0002068B904F1240001F0B4FFB6
:101B300088B14FF0805042490860BFF34F8FBFF328
:101B40006F8F08E03FB14FF080503D490860BFF310
:101B50004F8FBFF36F8F03F059FC012007B0BDE832
:101B6000F083059818B903F051FC0020F6E7B9F1AD
:101B7000000F04D101A802F0A9F84FF0010903F009
:101B800045FC01F0CCF903F01AFC94F94400401C28
:101B900010B9002084F8440094F94500401C10B9A5
:101BA000002084F8450003F031FC05A901A802F0EB
:101BB00094F8F0B92046FFF703FFA0B104F110003C
:101BC000059901F0DDFE2046FFF7BBFE01F0ACF801
:101BD000002895D14FF0805019490860BFF34F8F0E
:101BE000BFF36F8F8CE72046FFF7ABFE01F09CF848
:101BF00086E72046FFF7A5FE01F096F80020ADE746
:101C000010B5044654B10020A06020600021E160BE
:101C100000231A4619462046FFF720FF10BD2DE984
:101C2000F041044601260027224600210120FFF74B
:101C300055FE05462846FFF7E3FF2846BDE8F0813C
:101C400004ED00E070B505462C4654B900BF5020A5
:101C500080F31188BFF34F8FBFF36F8F00BF00BFBA
:101C6000FEE702F0A0F8A16888420CD1E068401EAF
:101C7000E060E06828B900231A4619462046FFF7BD
:101C8000EDFE012600E00026304670BD01464A6A9E
:101C900022B10A6B1268C2F1050000E00020704713
:101CA00070B5054603F08BFBA86B08B9012400E072
:101CB000002403F0ABFB204670BD2DE9F34182B058
:101CC000054600272C46B84654B900BF502080F383
:101CD0001188BFF34F8FBFF36F8F00BF00BFFEE7C8
:101CE000206C08B9012000E0002050B900BF50204E
:101CF00080F31188BFF34F8FBFF36F8F00BF00BF1A
:101D0000FEE702F053F808B9039808B9012000E093
:101D1000002050B900BF502080F31188BFF34F8FCF
:101D2000BFF36F8F00BF00BFFEE700BF03F047FBAC
:101D3000A66BFEB1701EA063206810B902F0B5F961
:101D4000A060206908B9012000E0002060B904F11A
:101D5000100001F0A1FE38B14FF08050FE4908603C
:101D6000BFF34F8FBFF36F8F03F050FB012004B020
:101D7000BDE8F081039818B903F048FB0020F6E7AE
:101D80001FB9684601F0A2FF012703F03FFB01F0F5
:101D9000C6F803F014FB94F94400401C10B900206D
:101DA00084F8440094F94500401C10B9002084F8E0
:101DB000450003F02BFB03A9684601F08EFF40BBF2
:101DC0002046FFF76DFFF0B1206838B903F0F7FA4D
:101DD000A06801F0F7FF804603F018FB04F124002F
:101DE000039901F0CDFD2046FFF7ABFD00F09CFF0D
:101DF00000289BD14FF08050D7490860BFF34F8F28
:101E0000BFF36F8F92E72046FFF79BFD00F08CFF3A
:101E10008CE72046FFF795FD00F086FF2046FFF790
:101E20003FFF002882D0B8F1000F0BD003F0C7FAB3
:101E30002046FFF72BFF06463146A06802F0A3F8C4
:101E400003F0E4FA002092E72DE9F04106460F4640
:101E5000344654B900BF502080F31188BFF34F8F30
:101E6000BFF36F8F00BF00BFFEE701F09CFFA168CA
:101E7000884204D1E068401CE060012508E0394652
:101E80002046FFF71AFF054615B1E068401CE060E8
:101E90002846BDE8F08170B505460E46002455B1D0
:101EA000AE4208D8022200212846FFF717FD04465B
:101EB0006CB1A6630BE054B900BF502080F31188C9
:101EC000BFF34F8FBFF36F8F00BF00BFFEE7204609
:101ED00070BD2DE9FC5F80468B4691461E46444608
:101EE00054B900BF502080F31188BFF34F8FBFF368
:101EF0006F8F00BF00BFFEE7BBF1000F01D1206C68
:101F000008B9012000E0002050B900BF502080F344
:101F10001188BFF34F8FBFF36F8F00BF00BFFEE785
:101F2000022E02D1E06B012801D1012000E0002047
:101F300050B900BF502080F31188BFF34F8FBFF31B
:101F40006F8F00BF00BFFEE703F094FA00BF50217F
:101F5000EFF3118081F31188BFF34F8FBFF36F8FC1
:101F600000BF0546A06BE16B884201D3022E3BD136
:101F700094F94570A06B0190324659462046FFF710
:101F80002EFD781C88B9606A08B9012000E00020A5
:101F900050B904F1240001F07FFD28B1B9F1000F20
:101FA00002D00120C9F800001BE001F0B6FB009050
:101FB0000098874214D27F2F01D0012000E000203A
:101FC00050B900BF502080F31188BFF34F8FBFF38B
:101FD0006F8F00BF00BFFEE7781C40B284F8450059
:101FE00000BF4FF0010A01E04FF0000A00BF85F387
:101FF000118800BF5046BDE8FC9F2DE9F05F074601
:1020000088463C4654B900BF502080F31188BFF386
:102010004F8FBFF36F8F00BF00BFFEE7206C08B982
:10202000012000E0002050B900BF502080F311884B
:10203000BFF34F8FBFF36F8F00BF00BFFEE7206875
:1020400008B9A06808B9012000E0002050B900BF1D
:10205000502080F31188BFF34F8FBFF36F8F00BF05
:1020600000BFFEE703F006FA00BF5021EFF3118036
:1020700081F31188BFF34F8FBFF36F8F00BF054609
:10208000D4F838A0E06B504536D994F945600AF190
:102090000100A063701C88B9606A08B9012000E0E3
:1020A000002030BB04F1240001F0F6FC08B3B8F1C5
:1020B000000F1ED00120C8F800001AE001F02DFB2F
:1020C00083465E4514D27F2E01D0012000E000201F
:1020D00050B900BF502080F31188BFF34F8FBFF37A
:1020E0006F8F00BF00BFFEE7701C40B284F8450050
:1020F00000BF4FF0010901E04FF0000900BF85F378
:10210000118800BF4846BDE8F09F70B504460D46F3
:10211000206C70B1216CE0680144E160D4E90210E8
:10212000884201D32168E1602846226CE16803F00F
:10213000F7F970BD2DE9F74183B005460E464FF023
:1021400000082C466CB900BF502080F31188BFF303
:102150004F8FBFF36F8F01E004ED00E000BF00BFC1
:10216000FEE70EB9206C08B9012000E0002050B94C
:1021700000BF502080F31188BFF34F8FBFF36F8FE4
:1021800000BF00BFFEE701F011FE08B9059808B9CD
:10219000012000E0002050B900BF502080F31188DA
:1021A000BFF34F8FBFF36F8F00BF00BFFEE700BFCD
:1021B00003F005F9A76BF7B131462046FFF7A5FFFD
:1021C000781EA063206908B9012000E0002060B9F2
:1021D00004F1100001F060FC38B14FF08050FC4970
:1021E0000860BFF34F8FBFF36F8F03F00FF901202B
:1021F00006B0BDE8F081059818B903F007F9002092
:10220000F6E7B8F1000F04D101A801F05FFD4FF02F
:10221000010803F0FBF800F082FE03F0D0F894F917
:102220004400401C10B9002084F8440094F9450093
:10223000401C10B9002084F8450003F0E7F805A918
:1022400001A801F04AFDF0B92046FFF729FDA0B131
:1022500004F12400059901F093FB2046FFF771FB80
:1022600000F062FD0028A3D14FF08050D8490860EB
:10227000BFF34F8FBFF36F8F9AE72046FFF761FBE5
:1022800000F052FD94E72046FFF75BFB00F04CFDA9
:102290002046FFF705FD00288AD00020A8E72DE999
:1022A000F74382B005460E464FF000082C4654B95D
:1022B00000BF502080F31188BFF34F8FBFF36F8FA3
:1022C00000BF00BFFEE70EB9206C08B9012000E096
:1022D000002050B900BF502080F31188BFF34F8F0A
:1022E000BFF36F8F00BF00BFFEE701F05FFD08B9CD
:1022F000049808B9012000E0002050B900BF502028
:1023000080F31188BFF34F8FBFF36F8F00BF00BF03
:10231000FEE700BF03F053F8D4F83890B9F1000F8E
:102320001ED0E76831462046FFF7EFFEE760606A9F
:1023300008B9012000E0002060B904F1240001F098
:10234000ABFB38B14FF08050A1490860BFF34F8F0D
:10235000BFF36F8F03F05AF8012005B0BDE8F0839A
:10236000049818B903F052F80020F6E7B8F1000F0E
:1023700004D1684601F0AAFC4FF0010803F046F8CA
:1023800000F0CDFD03F01BF894F94400401C10B997
:10239000002084F8440094F94500401C10B9002046
:1023A00084F8450003F032F804A9684601F095FC72
:1023B000F0B92046FFF774FCA0B104F124000499A1
:1023C00001F0DEFA2046FFF7BCFA00F0ADFC002871
:1023D000A0D14FF080507E490860BFF34F8FBFF30C
:1023E0006F8F97E72046FFF7ACFA00F09DFC91E76E
:1023F0002046FFF7A6FA00F097FC2046FFF750FCB6
:10240000002887D00020A8E72DE9F84F07468A4624
:1024100090463C4654B900BF502080F31188BFF36A
:102420004F8FBFF36F8F00BF00BFFEE7BAF1000F01
:1024300001D1206C08B9012000E0002050B900BF94
:10244000502080F31188BFF34F8FBFF36F8F00BF11
:1024500000BFFEE703F00EF800BF5021EFF311803C
:1024600081F31188BFF34F8FBFF36F8F00BF054615
:10247000D4F838B0BBF1000F3BD094F9446051461A
:102480002046FFF742FEABF10100A063701C88B943
:10249000206908B9012000E0002038BB04F11000D9
:1024A00001F0FAFA10B3B8F1000F1FD00120C8F8FC
:1024B00000001BE001F031F900900098864214D230
:1024C0007F2E01D0012000E0002050B900BF502035
:1024D00080F31188BFF34F8FBFF36F8F00BF00BF32
:1024E000FEE7701C40B284F8440000BF4FF00109C1
:1024F00001E04FF0000900BF85F3118800BF484696
:10250000BDE8F88F2DE9F04706468846344654B9B1
:1025100000BF502080F31188BFF34F8FBFF36F8F40
:1025200000BF00BFFEE7B8F1000F01D1206C08B971
:10253000012000E0002050B900BF502080F3118836
:10254000BFF34F8FBFF36F8F00BF00BFFEE7206C5C
:1025500008B1012000E0002050B900BF502080F3F6
:102560001188BFF34F8FBFF36F8F00BF00BFFEE72F
:1025700002F080FF00BF5021EFF3118081F311883A
:10258000BFF34F8FBFF36F8F00BF0546A06B48B1FD
:10259000D4F80C9041462046FFF7B7FDC4F80C90E4
:1025A000012700E0002700BF85F3118800BF3846EF
:1025B000BDE8F08770B5044664B900BF502080F3D1
:1025C0001188BFF34F8FBFF36F8F00BF00BFFEE7CF
:1025D00004ED00E002F0F3FEA56B02F017FF2846C1
:1025E00070BD70B50446254655B900BF502080F334
:1025F0001188BFF34F8FBFF36F8F00BF00BFFEE79F
:1026000002F0DDFED5E90E10461A02F0FFFE30465C
:1026100070BD10B501460A4652B900BF502383F37E
:102620001188BFF34F8FBFF36F8F00BF00BFFEE76E
:10263000906B10BD014651B900BF502282F3118842
:10264000BFF34F8FBFF36F8F00BF00BFFEE70020C7
:102650000EE0684A02EBC00252688A4207D10022AB
:10266000644B43F8302003EBC0035A6002E0401C87
:102670000828EED300BF704770B50446254655B90B
:1026800000BF502080F31188BFF34F8FBFF36F8FCF
:1026900000BF00BFFEE72846FFF7CCFF284602F048
:1026A000EAFC70BD0146886C704781647047014642
:1026B00091F84C00704710B501460A4652B900BF68
:1026C000502383F31188BFF34F8FBFF36F8F00BF89
:1026D00000BFFEE7936B0BB9012000E0002010BDA6
:1026E00010B501460A4652B900BF502383F3118842
:1026F000BFF34F8FBFF36F8F00BF00BFFEE7936B39
:10270000D46BA34201D1012000E0002010BD30B500
:1027100002460B46002152B900BF502484F31188B1
:10272000BFF34F8FBFF36F8F00BF00BFFEE7BBB19A
:10273000002012E02F4C04EBC0046468944203D1E3
:102740002C4C04EBC0010AE031B92A4C54F830405B
:1027500014B9284C04EBC001401C0828EAD300BF80
:1027600009B10B604A6030BD10B50246002052B975
:1027700000BF502383F31188BFF34F8FBFF36F8FD8
:1027800000BF00BFFEE700210AE01A4B03EBC103C4
:102790005B68934203D1174B53F8310002E0491CA8
:1027A0000829F2D300BF10BD2DE9F04105460E46C1
:1027B00017462C4602F003FE94F94400401C10B961
:1027C000002084F8440094F94500401C10B9002012
:1027D00084F8450002F01AFEA06B28B93A4631464B
:1027E00004F1240001F029F92046FFF7AAF8BDE81A
:1027F000F08100007401002010B5002407E004EB14
:102800008401F94A02EB8100FEF79EFF641C052C4F
:10281000F5D3F648FEF798FFF548FEF795FFF54823
:10282000FEF792FFF448FEF78FFFF448FEF78CFFA7
:10283000EE48F3490860EE48F249086010BD10B553
:10284000044602F0BCFDF0480068401CEE490860F8
:10285000EE48006840B9ED48046008460068012869
:102860000DD1FFF7C9FF0AE0E948006838B9E74829
:102870000068C06AE16A884201D8E4480460E5481B
:102880000068401CE349086008460068206494F82A
:102890002C1001208840E04909680843DE4908609F
:1028A000E16A01EB8101D04A02EB81014868A06036
:1028B0008268E260211D826851608160E16A01EBFB
:1028C0008101C94A02EB81026261E16A01EB810187
:1028D000C54A52F82110491CE26A02EB8202C24B3F
:1028E00043F8221002F092FDC948006868B1C74859
:1028F0000068C06AE16A884207D24FF08050C74939
:102900000860BFF34F8FBFF36F8F10BD2DE9F05FED
:1029100082460F4690469B460A9E0C9C4FEA8801D1
:10292000A522206B02F041FEA8F10100216B01EB12
:10293000800929F0070909F0070008B9012000E023
:10294000002050B900BF502080F31188BFF34F8F93
:10295000BFF36F8F00BF00BFFEE77FB1002507E028
:10296000795D04F134004155785D00B902E06D1CD9
:102970000A2DF5D300BF00213D200155052E01D2BF
:10298000012000E0002050B900BF502080F31188E2
:10299000BFF34F8FBFF36F8F00BF00BFFEE7052E61
:1029A00000D30426E662A664201DFEF7DAFE04F1D9
:1029B0001800FEF7D6FE2461C6F10500A06164622E
:1029C0005A465146484602F01BFC20600B9808B15D
:1029D0000B980460BDE8F09F2DE9FF4F85B080465D
:1029E00089461746DDE912ABB80002F0B8FA064690
:1029F00076B1582002F0B3FA04462CB15821204693
:102A000002F0FDFD266304E0304602F034FB00E0F6
:102A100000247CB10020CDE900ABCDE902403A466C
:102A200049464046089BFFF771FF2046FFF707FF26
:102A3000012501E04FF0FF35284609B0BDE8F08FD1
:102A400010B50446206B02F016FB204602F013FB83
:102A500010BD6B480068006808B9012000E0002044
:102A600020B14FF0FF306E49086005E0644800680F
:102A7000C06800686A490860704770B5054602F092
:102A80009EFC15B96148006800E028460446201DF8
:102A9000FEF790FE78B9E06A00EB8000524951F8E9
:102AA000200040B994F82C10012088405A49096848
:102AB000814359480160A06A18B104F11800FEF77B
:102AC00079FE54480068401C524908604F4800682D
:102AD000844209D1211D4848FEF746FE514800684E
:102AE000401C5049086006E047480068401E4649BF
:102AF0000860FFF7AEFF02F089FC4448006884429A
:102B000002D02046FFF79CFF41480068E8B13F48EB
:102B10000068844219D14448006808B9012000E0E7
:102B2000002050B900BF502080F31188BFF34F8FB1
:102B3000BFF36F8F00BF00BFFEE74FF080503749F3
:102B40000860BFF34F8FBFF36F8F70BD2DE9F04169
:102B50004FF0000834480068002844D1334800682A
:102B6000451C3248056015BB25480068006808B957
:102B7000012000E0002050B900BF502080F31188F0
:102B8000BFF34F8FBFF36F8F00BF00BFFEE71C483E
:102B900007681C4800681A4908601A4807602448FA
:102BA0000068401C22490860FFF753FF00BF1C4823
:102BB000006885427ED300BF11480068006808B9EC
:102BC000012000E0002020B14FF0FF3014490860E0
:102BD0008FE00B480068C068C4686668B54229D2B7
:102BE0000F48066085E097E0B4010020180200203D
:102BF0002C02002040020020540200206802002025
:102C00003400002038000020400000203000002068
:102C10004C0000205C0000204800002004ED00E093
:102C2000600000203C0000206C00002044000020D8
:102C3000580000206069D4E902128A60D4E90221B8
:102C40004A60211D42688A4201D1E1684160002248
:102C500062610168491E0160A06A98B1A06AD4E966
:102C600007128A60D4E907214A6004F1180142681A
:102C70008A4201D1216A41600022A2620168491E94
:102C8000016000BF94F82C1001208840F9490968C0
:102C90000843F8490860E16A01EB8101F64A02EB5A
:102CA00081014868A0608268E260211D82685160ED
:102CB000816000E01EE0E16A01EB8101EE4A02EB77
:102CC00081026261E16A01EB8101EB4A52F8211055
:102CD000491CE26A02EB8202E74B43F82210E74903
:102CE000E06A0968C96A88427FF666AF4FF001085A
:102CF00062E700BFE1480068C06A00EB8000DE497F
:102D000051F82000012801D94FF00108DC48006883
:102D100008B14FF0010804E0DA480068401CD949C6
:102D200008604046BDE8F08170B500240026D64812
:102D3000006850B900BF502080F31188BFF34F8F57
:102D4000BFF36F8F00BF00BFFEE702F038FBCE4835
:102D50000068401ECC4908600846006800287DD104
:102D6000CA480068002879D05BE0C948C068C468D8
:102D7000A06AD4E907128A60D4E907214A6004F105
:102D8000180142688A4201D1216A41600022A26290
:102D90000168491E01606069D4E902128A60D4E9C1
:102DA00002214A60211D42688A4201D1E1684160E6
:102DB000002262610168491E016094F82C10012014
:102DC0008840AC4909680843AA490860E16A01EBF8
:102DD0008101A94A02EB81014868A0608268E26033
:102DE000211D826851608160E16A01EB8101A24A84
:102DF00002EB81026261E16A01EB81019E4A52F8B5
:102E00002110491CE26A02EB82029B4B43F822101C
:102E10009A49E06A0968C96A884202D30120984940
:102E200008609B48006808B9012000E000200028E5
:102E30009BD00CB1FFF70DFE9248056865B100BF4D
:102E4000FFF784FE10B101208D4908606D1E002D32
:102E5000F6D100208B490860894800E009E000684D
:102E600038B1012630078B490860BFF34F8FBFF39D
:102E70006F8F02F0CBFA304670BD2DE9F041054668
:102E80000E46854807687D480068001DFEF792FCE5
:102E900050B97A48006890F82C1001208840754994
:102EA0000968814373480160681CD8B9D6B17B4971
:102EB0004868724909688860704982680968CA6010
:102EC0006E490968091D826851606C490968091DCD
:102ED0008160724A694909684A6111460968491C5A
:102EE00011601AE07C19654800684460BC4207D252
:102EF00062480168091D6A480068FEF741FC0CE061
:102F00005E480168091D67480068FEF739FC66489D
:102F10000068844201D264480460BDE8F0815A48E8
:102F20000068401C5849086070472DE9F047044686
:102F30000F464FF0000954B900BF502080F31188AC
:102F4000BFF34F8FBFF36F8F00BF00BFFEE70FB11E
:102F5000012000E0002050B900BF502080F311880C
:102F6000BFF34F8FBFF36F8F00BF00BFFEE7464830
:102F7000006808B9012000E0002050B900BF5020CF
:102F800080F31188BFF34F8FBFF36F8F00BF00BF77
:102F9000FEE7FFF7C4FF404806682068C5192068AF
:102FA000B04207D92068A8420BD9B54209D94FF0E1
:102FB000010906E02068A84201D8B54201D94FF0C6
:102FC00001092560B9F1000F03D0A81B0021FFF70C
:102FD00054FFFFF7A9FE8046B8F1000F07D14FF06C
:102FE00080502C490860BFF34F8FBFF36F8F484666
:102FF000BDE8F08770B504460025D4B122480068CA
:1030000008B9012000E0002050B900BF502080F333
:103010001188BFF34F8FBFF36F8F00BF00BFFEE774
:10302000FFF77DFF00212046FFF727FFFFF77CFE1B
:1030300005463DB94FF0805016490860BFF34F8FE9
:10304000BFF36F8F70BD2DE9F04707463E4656B976
:1030500000BF502080F31188BFF34F8FBFF36F8FF5
:1030600000BF00BFFEE70548006886421ED100246D
:103070004AE0000048000020B40100203000002099
:1030800054000020500000206C0000204000002070
:103090004002002004ED00E044000020680200200F
:1030A00038000020340000206000002002F087F982
:1030B0007569FE48D0F80080FD48D0F8009002F015
:1030C000A5F9454501D04D4501D102241CE0F94840
:1030D000854212D1B06A70B90324002007E006F1DE
:1030E0005401095C012901D1022402E0401C01289D
:1030F000F5DB00BF08E0022406E0EF48854200D07F
:103100000DB9042400E001242046BDE8F08770B525
:10311000044602F054F914B9E848006800E020467B
:103120000646F56A02F072F9284670BD2DE9F041B5
:10313000054602F09FF900BF5021EFF3118081F3A3
:103140001188BFF34F8FBFF36F8F00BF044615B9CF
:10315000DA48006800E028460746FE6A00BF84F3AC
:10316000118800BF3046BDE8F0812DE9F047804668
:103170000D464FF00009052D01D2012000E000208E
:1031800050B900BF502080F31188BFF34F8FBFF3B9
:103190006F8F00BF00BFFEE7052D00D3042502F0AE
:1031A0000EF9B8F1000F02D1C448006800E04046B3
:1031B0000446A66CAE4270D0B5420BD9BF48006839
:1031C00084420DD0BD480068C06AA84208D84FF0BC
:1031D000010905E0B9480068844201D14FF00109B6
:1031E000E76AE16AA06C884200D1E562A564A06943
:1031F00000F0004010B9C5F10500A06107EB8701A0
:10320000AF4A02EB81016069884201D1012000E0F0
:103210000020B0B3201DFEF7CDFA30B90120B84030
:10322000A84909688143A748016094F82C1001203F
:103230008840A44909680843A2490860E16A01EB93
:1032400081019F4A02EB81014868A0608268E260C8
:10325000211D826851608160E16A01EB8101984A19
:1032600002EB81026261E16A01EB8101944A52F84A
:103270002110491CE26A02EB8202914B43F82210B2
:1032800000BFB9F1000F07D04FF080508E490860A1
:10329000BFF34F8FBFF36F8F00BF02F0B7F8BDE8E9
:1032A000F0878A48006818B101208949086032E037
:1032B00000208749086083480068B0FA80F0C0F1B8
:1032C0001F0101EB81007E4A52F8200008B1012065
:1032D00000E0002050B900BF502080F31188BFF3F8
:1032E0004F8FBFF36F8F00BF00BFFEE701EB81027E
:1032F000734B03EB820042685268426000F108029F
:103300004368934202D14268526842604268D26880
:103310006A4B1A6000BF704770B5054602F04FF85F
:1033200015B96648006800E028460446201DFEF7EF
:1033300041FA78B9E06A00EB8000614951F8200059
:1033400040B994F82C10012088405E4909688143F7
:103350005C480160A06A18B104F11800FEF72AFA6F
:10336000211D5448FEF700FA002009E004F1540141
:10337000095C012903D1002204F154010A54401CC4
:103380000128F3DB02F042F85248006828B102F04D
:1033900016F8FFF75EFB02F039F8484800688442EF
:1033A00029D14C480068D0B14848006808B90120CC
:1033B00000E0002050B900BF502080F31188BFF317
:1033C0004F8FBFF36F8F00BF00BFFEE74FF08050FD
:1033D0003D490860BFF34F8FBFF36F8F0BE0354857
:1033E00000683D490968884203D1002033490860DC
:1033F00001E0FFF756FF70BD10B5024600201146F0
:1034000052B900BF502383F31188BFF34F8FBFF32E
:103410006F8F00BF00BFFEE7264C4B69A34201D16E
:10342000012300E0002373B12C4C8B6AA34201D12D
:10343000012300E0002333B98B6A0BB9012300E0BC
:10344000002303B1012010BD70B505462C4655B9C7
:1034500000BF502080F31188BFF34F8FBFF36F8FF1
:1034600000BF00BFFEE715480068844261D0002C11
:103470005FD001F0A4FF2046FFF7BEFF80B3201D00
:10348000FEF798F994F82C10012088400D4909683E
:1034900008430C490860E16A01EB8101084A02EB2C
:1034A00081014868A0608268E2601AE03400002070
:1034B0003800002068020020540200203000002064
:1034C000B40100204800002004ED00E06C00002062
:1034D000540000204C00002040000020400200204A
:1034E00025E0211D826851608160E16A01EB810164
:1034F000FC4A02EB81026261E16A01EB8101F94A57
:1035000052F82110491CE26A02EB8202F54B43F8A3
:103510002210F549E06A0968C96A884207D34FF06A
:103520008050F2490860BFF34F8FBFF36F8F01F0F7
:103530006DFF70BD2DE9F04106460027344656B9AF
:1035400000BF502080F31188BFF34F8FBFF36F8F00
:1035500000BF00BFFEE701F08DFF00BF5021EFF379
:10356000118081F31188BFF34F8FBFF36F8F00BFBE
:1035700005462046FFF740FF002841D0DC480068A0
:10358000C0BBD949E06A0968C96A884203D30127E8
:103590000120D8490860201DFEF70CF994F82C1082
:1035A00001208840D44909680843D3490860E16A8A
:1035B00001EB8101CB4A02EB81014868A06082687F
:1035C000E260211D826851608160E16A01EB810146
:1035D000C44A02EB81026261E16A01EB8101C14AE6
:1035E00052F82110491CE26A02EB8202BD4B43F8FB
:1035F000221005E0FFE704F11801C048FEF7B4F817
:1036000000BF85F3118800BF3846BDE8F08110B5D2
:1036100016E001F0D4FEBA48C068C468201DFEF769
:10362000C9F8B8480068401EB6490860B648006846
:10363000401EB549086001F0E9FE2046FFF700FA98
:10364000B14800680028E4D110BD00BFFFF7DFFFDC
:10365000A44800680128F9D94FF08050A3490860B8
:10366000BFF34F8FBFF36F8FF0E71CB5A748002162
:103670000B468222CDE90010A5A1A748FFF7ACF9BF
:103680000446012C02D101F06DFA0446012C15D13B
:1036900000BF502080F31188BFF34F8FBFF36F8FAF
:1036A00000BF4FF0FF309D49086001209C49086031
:1036B00000209C49086001F0C8FD10E0601C08B1C2
:1036C000012000E0002050B900BF502080F3118895
:1036D000BFF34F8FBFF36F8F00BF00BFFEE792486D
:1036E00000681CBD10B500BF502080F31188BFF3E7
:1036F0004F8FBFF36F8F00BF00208949086001F032
:1037000049FE10BD87490868704770B501F0B2FEE8
:10371000002584480468204670BD7A4800687047D8
:10372000014611B97048006800E00846024652B9E7
:1037300000BF502080F31188BFF34F8FBFF36F8F0E
:1037400000BF00BFFEE702F13400704702460021CF
:1037500001E0521C491C1078A528FAD0890888B2CB
:1037600070472DE9F04107460C4690461E4617B9B2
:103770005D48006800E038460546256005F13400E4
:103780006060E86A2061286BE061286CA060A86C2A
:1037900060610020A061052E12D053480068854268
:1037A00002D1002020730FE02673032E0CD1FFF707
:1037B000B6FBA86A08B102202073FFF7B5FA03E050
:1037C0002846FFF740FC2073B8F1000F04D0286BA7
:1037D000FFF7BCFF208401E000202084BDE8F081D9
:1037E0002DE9F04707460C4690460026206848B36E
:1037F000204641684968416000F1080142688A42F8
:1038000002D14168496841604168D1F80C9000BF1D
:10381000204641684968416000F1080142688A42D7
:1038200002D14168496841604168CD6806EBC60035
:1038300007EB8001434601222846FFF792FF761CE2
:103840004D45E5D13046BDE8F0872DE9F04105460C
:103850008846164600240527FFF761FB29480068C3
:10386000804539D300BF7F1E07EB87021D4B03EB5A
:10387000820104EBC40205EB82000122FFF7B0FFD6
:103880000444002FEFD104EBC40105EB81000222B8
:1038900026490968FFF7A4FF044404EBC40105EBC3
:1038A0008100022222490968FFF79AFF044404EBD1
:1038B000C40105EB810004221149FFF791FF044484
:1038C00004EBC40105EB810003221A49FFF788FFCE
:1038D00004440EB100203060FFF726FA2046BDE810
:1038E000F0810000B40100203000002004ED00E071
:1038F0006C000020540000204800002040020020FE
:1039000054020020400000203C0000206400002001
:1039100049444C45000000004B3600086000002080
:103920004C000020440000206800002034000020EB
:10393000380000206802002070B50446FA4800688C
:1039400008B9012000E0002050B900BF502080F3EA
:103950001188BFF34F8FBFF36F8F00BF00BFFEE72B
:10396000FFF7DDFA01F02BFDF04800682044EF4935
:10397000086001F04BFDFFF7D7F90546284670BDFA
:1039800070B504460D4654B900BF502080F311882D
:10399000BFF34F8FBFF36F8F00BF00BFFEE7E44858
:1039A000016818312046FDF7EBFE01212846FFF79C
:1039B00064FA70BD70B504460D46164654B900BF92
:1039C000502080F31188BFF34F8FBFF36F8F00BF7C
:1039D00000BFFEE7D448006808B1012000E00020E5
:1039E00050B900BF502080F31188BFF34F8FBFF351
:1039F0006F8F00BF00BFFEE745F00040CC4909686B
:103A000088616068CA490968C861C94982680968EB
:103A10000A62C7490968183182685160C449096857
:103A200018318160C24909688C622168491C216093
:103A300001213046FFF721FA70BD70B504460E46ED
:103A4000154654B900BF502080F31188BFF34F8F43
:103A5000BFF36F8F00BF00BFFEE76068B44909681D
:103A6000C861B349826809680A62B14909681831B6
:103A700082685160AE49096818318160AC490968B3
:103A80008C622168491C21600DB14FF0FF36294638
:103A90003046FFF7F2F970BD70B50346D868C168CB
:103AA00051B900BF502080F31188BFF34F8FBFF38F
:103AB0006F8F00BF00BFFEE7886AD1E90745A560A8
:103AC000D1E90754656001F118044568A54201D1A8
:103AD0000C6A446000258D620468641E046092488C
:103AE000006800283DD14869D1E90245A560D1E9C7
:103AF000025465600C1D4568A54201D1CC68446044
:103B000000254D610468641E046091F82C4001207A
:103B1000A040884C24682043864C2060CC6A04EB8B
:103B20008404854D05EB8404606888608568CD60F9
:103B30000C1D85686C608460CC6A04EB84047E4D47
:103B400005EB84054D61CC6A04EB84047A4D55F88D
:103B50002440641CCD6A05EB8505774E46F8254068
:103B600010E0764C6068C86185680D6201F1180448
:103B700085686C608460714D8D622C462468641C7D
:103B80002C6000BF6A4CC86A2468E46AA04204D969
:103B9000012201206A4C206000E00022104670BD26
:103BA00070B502460B466049096809B1012100E081
:103BB000002151B900BF502181F31188BFF34F8F0D
:103BC000BFF36F8F00BF00BFFEE743F000411160FD
:103BD000D06850B900BF502181F31188BFF34F8FD7
:103BE000BFF36F8F00BF00BFFEE71169D2E9015438
:103BF000AC60D2E901456C604C68944201D1946894
:103C00004C60002414610C68641E0C604169D0E9AA
:103C10000245A560D0E902546560041D4D68A542C7
:103C200001D1C4684C60002545610C68641E0C60BD
:103C300090F82C400121A1403E4C246821433D4C8A
:103C40002160C46A04EB84043B4D05EB8404616885
:103C500081608D68C560041D8D686C608C60C46A6D
:103C600004EB8404344D05EB84054561C46A04EB20
:103C70008404314D55F82440641CC56A05EB850564
:103C80002D4E46F825402A4CC16A2468E46AA142B8
:103C900002D901212A4C216070BD10B5044654B9E7
:103CA00000BF502080F31188BFF34F8FBFF36F8F99
:103CB00000BF00BFFEE701F082FB224800682060E1
:103CC00021480068606001F0A1FB10BD1D49096832
:103CD00001601D4909684160704770B505460C4692
:103CE00055B900BF502080F31188BFF34F8FBFF349
:103CF0006F8F00BF00BFFEE754B900BF502080F3B4
:103D00001188BFF34F8FBFF36F8F00BF00BFFEE777
:103D100001F055FB0C4802686868131A2068401CC3
:103D2000A0B900262CE000006C000020500000200C
:103D30003000002048000020B40100204002002094
:103D4000540000205800002044000020FD4928684D
:103D50000968884206D06868904203D8012600208E
:103D600020600DE02068984207D92068C01A2060C2
:103D70002846FFF7ABFF002602E000202060012666
:103D800001F044FB304670BD0120EF4908607047E8
:103D9000014611B10A46506C00E00020704708B19E
:103DA000024651647047E94908687047E849096864
:103DB00009B9012005E0E749096809B9022000E0D6
:103DC0000020704770B505462C460026002D67D0B0
:103DD000DE49E06A0968C96A88425AD2A06900F0DF
:103DE000004028B9D9480068C06AC0F10500A06148
:103DF000E16A01EB8101D84A02EB810160698842E6
:103E000001D1012000E00020E0B3201DFDF7D2FC2D
:103E100040B994F82C1001208840D04909688143AA
:103E2000CE480160C9480068C06AE06294F82C106E
:103E300001208840C94909680843C8490860E16A07
:103E400001EB8101C44A02EB81014868A0608268ED
:103E5000E260211D826851608160E16A01EB8101AD
:103E6000BD4A02EB81026261E16A01EB8101BA4A5B
:103E700052F82110491CE26A02EB8202B64B43F869
:103E8000221004E0FFE7B1480068C06AE062012642
:103E900006E0AE49A06C0968C96A884200D20126D2
:103EA000304670BD70B505462C460026002D68D002
:103EB000A6480068844201D1012000E0002050B9EA
:103EC00000BF502080F31188BFF34F8FBFF36F8F77
:103ED00000BF00BFFEE7E06C50B900BF502080F388
:103EE0001188BFF34F8FBFF36F8F00BF00BFFEE796
:103EF000E06C401EE064A16CE06A884241D0E06C56
:103F000000283ED1201DFDF755FC40B994F82C1037
:103F10000120884091490968814390480160A06C64
:103F2000E062E06AC0F10500A06194F82C10012065
:103F300088408A490968084388490860E16A01EBBA
:103F40008101854A02EB81014868A0608268E260D5
:103F5000211D826851608160E16A01EB81017E4A26
:103F600002EB81026261E16A01EB81017A4A52F857
:103F70002110491CE26A02EB8202774B43F82210BF
:103F80000126304670BD2DE9F04706460F463446FF
:103F90004FF00109002E7AD0E06C50B900BF5020DC
:103FA00080F31188BFF34F8FBFF36F8F00BF00BF47
:103FB000FEE7A06CB84201D23D4600E0A56CE06A85
:103FC000A84264D0E06C012861D160480068844256
:103FD00001D0012000E0002050B900BF502080F344
:103FE0001188BFF34F8FBFF36F8F00BF00BFFEE795
:103FF000D4F82C80E562A06900F0004010B9C5F14A
:104000000500A06108EB8801534A02EB8101606959
:10401000884201D1012000E00020C0B3201DFDF73F
:10402000C9FB40B994F82C10012088404B4909681D
:1040300081434A48016094F82C1001208840474988
:104040000968084345490860E16A01EB8101424A79
:1040500002EB81014868A0608268E260211D8268ED
:1040600051608160E16A01EB81013B4A02EB810210
:104070006261E16A01EB8101374A52F82110491C63
:10408000E26A02EB8202344B43F8221000BFBDE823
:10409000F0872E49096888692C490968C96AC1F105
:1040A00005012A4A1268916170472848006830B1BA
:1040B0002649096801F14C00C96C491C016023487C
:1040C000006870472DE9F04104460F4616460CB9CA
:1040D000012000E0002050B900BF502080F311887B
:1040E000BFF34F8FBFF36F8F00BF00BFFEE701F03C
:1040F00066F916480068503050F8240080B9012154
:10410000124800685430015556B13046FEF7B5FEEE
:104110004FF0805012490860BFF34F8FBFF36F8F8D
:1041200001F074F901F04BF908480068503050F87C
:104130002450EDB1B7B1002104480068503040F878
:10414000241015E05800002054000020300000200A
:104150004C0000206C000020B4010020480000202A
:1041600004ED00E0681EFE490968503141F8240062
:104170000021FB4800685430015501F047F92846FA
:10418000BDE8F0812DE9F04704460F4690461D46F4
:10419000DDF820900CB9012000E0002050B900BFEC
:1041A000502080F31188BFF34F8FBFF36F8F00BF94
:1041B00000BFFEE701F003F9E94800685430005DF4
:1041C00002281AD0E6490968503101EB84000168E1
:1041D000B94301600121E248006854300155B9F14A
:1041E000000F0AD04846FEF748FE4FF08050DD49E8
:1041F0000860BFF34F8FBFF36F8F01F007F901F035
:10420000DEF82DB1D6480068503050F82400286000
:10421000D34800685430005D022801D0002609E030
:10422000CF490968503101EB8400016821EA080197
:10423000016001260021CA4800685430015501F090
:10424000E5F83046BDE8F0872DE9F05F07460D46FA
:1042500016469846DDF828A04FF0010B0DB9012055
:1042600000E0002050B900BF502080F31188BFF358
:104270004F8FBFF36F8F00BF00BFFEE757B900BF7E
:10428000502080F31188BFF34F8FBFF36F8F00BFB3
:1042900000BFFEE73C4601F092F8BAF1000F05D0EE
:1042A00004F1500050F82500CAF8000004F1540051
:1042B00010F8059002214155B8F1050F29D2DFE829
:1042C00008F027030D171C0004F1500050F82500DA
:1042D000304304F1500141F825002DE004F1500075
:1042E00050F82500401C04F1500141F8250023E05E
:1042F00004F1500040F825601EE0B9F1020F04D02F
:1043000004F1500040F8256001E04FF0000B13E08D
:1043100012E09548006808B9012000E0002050B97B
:1043200000BF502080F31188BFF34F8FBFF36F8F12
:1043300000BF00BFFEE700BF00BFB9F1010F5BD1B6
:104340006069D4E902128A60D4E902214A60211D21
:1043500042688A4201D1E1684160002262610168DD
:10436000491E016094F82C10012088407F4909689B
:1043700008437E490860E16A01EB81017C4A02EB57
:1043800081014868A0608268E260211D82685160F6
:104390008160E16A01EB8101754A02EB8102626191
:1043A000E16A01EB8101724A52F82110491CE26A6C
:1043B00002EB82026E4B43F82210A06A08B901207A
:1043C00000E0002050B900BF502080F31188BFF3F7
:1043D0004F8FBFF36F8F00BF00BFFEE76049E06AF9
:1043E0000968C96A884207D94FF080505D49086062
:1043F000BFF34F8FBFF36F8F01F008F85846BDE849
:10440000F09F2DE9F84F80460D4617469946DDF896
:1044100028B001200090B8F1000F0AD100BF502051
:1044200080F31188BFF34F8FBFF36F8F00BF00BFC2
:10443000FEE70DB9012000E0002050B900BF502078
:1044400080F31188BFF34F8FBFF36F8F00BF00BFA2
:10445000FEE701F00FF8444600BF5021EFF3118052
:1044600081F31188BFF34F8FBFF36F8F00BF0646F4
:10447000BBF1000F05D004F1500050F82500CBF837
:10448000000004F1540010F805A002214155B9F1D3
:10449000050F29D2DFE809F027030D171C0004F1EE
:1044A000500050F82500384304F1500141F8250030
:1044B0002DE004F1500050F82500401C04F150019B
:1044C00041F8250023E004F1500040F825701EE07B
:1044D000BAF1020F04D004F1500040F8257001E059
:1044E0000020009013E012E01F48006808B9012086
:1044F00000E0002050B900BF502080F31188BFF3C6
:104500004F8FBFF36F8F00BF00BFFEE700BF00BF3C
:10451000BAF1010F7ED1A06A08B9012000E00020A5
:1045200050B900BF502080F31188BFF34F8FBFF305
:104530006F8F00BF00BFFEE70E480068F0BB6069E8
:10454000D4E902128A60D4E902214A60211D42683E
:104550008A4201D1E16841600022626101680BE09A
:104560003000002004ED00E044000020480000205E
:10457000B40100206C000020491E016094F82C104A
:1045800001208840AA4909680843A9490860E16AEE
:1045900001EB8101A74A02EB81014868A0608268B3
:1045A000E260211D826851608160E16A01EB810156
:1045B000A04A02EB81026261E16A00E00CE001EBDB
:1045C00081019C4A52F82110491CE26A02EB8202E6
:1045D000984B43F8221010E097494868E0618268E0
:1045E000226204F11801826851608160924AA262DD
:1045F00011460968491C116000BF9049E06A0968CA
:10460000C96A884209D90B9810B101210B98016041
:10461000012000E001E08A49086000BF86F31188AC
:1046200000BF0098BDE8F88F2DE9F04705460E461B
:10463000904655B900BF502080F31188BFF34F8FCB
:10464000BFF36F8F00BF00BFFEE70EB9012000E08F
:10465000002050B900BF502080F31188BFF34F8F66
:10466000BFF36F8F00BF00BFFEE700F003FF2C46D3
:1046700000BF5021EFF3118081F31188BFF34F8FFA
:10468000BFF36F8F00BF074604F1540010F8069087
:1046900002218155001F50F82600401C04F15001F2
:1046A00041F82600B9F1010F72D1A06A08B90120C2
:1046B00000E0002050B900BF502080F31188BFF304
:1046C0004F8FBFF36F8F00BF00BFFEE75D480068EC
:1046D00000283DD16069D4E902128A60D4E9022140
:1046E0004A60211D42688A4201D1E168416000228E
:1046F00062610168491E016094F82C100120884015
:104700004B49096808434A490860E16A01EB8101A5
:10471000484A02EB81014868A0608268E260211D7E
:10472000826851608160E16A01EB8101414A02EBDC
:1047300081026261E16A01EB81013E4A52F8211077
:10474000491CE26A02EB82023A4B43F8221010E065
:1047500039494868E0618268226204F11801826880
:1047600051608160344AA26211460968491C116097
:1047700000BF3249E06A0968C96A884208D9B8F1BD
:10478000000F02D00120C8F8000001202C49086069
:1047900000BF87F3118800BFBDE8F0872DE9F04125
:1047A00006460C460CB9012000E0002050B900BFBD
:1047B000502080F31188BFF34F8FBFF36F8F00BF7E
:1047C00000BFFEE716B91D48006800E03046074606
:1047D00000F0F5FD07F15400005D022805D100212D
:1047E00007F154000155012500E0002500F00EFE00
:1047F0002846BDE8F0812DE9F04106460C461746F3
:1048000016B90E48006800E03046054600F0D7FDB6
:1048100005F1500050F8248050F82400B84305F109
:10482000500141F8240000F0F1FD4046BDE8F08160
:1048300048000020B4010020400200203000002089
:10484000540000206C0000202DE9F04104460D4684
:1048500016461F464FF0000865602461B5420CD82B
:10486000F01BA169884202D34FF0010811E0211D1D
:10487000FB480068FCF784FF0BE0BE4204D2BD4257
:1048800002D34FF0010804E0211DF6480068FCF750
:1048900077FF4046BDE8F08170B504460D461646E8
:1048A00004E0A06905442046216A8847A0694119AF
:1048B0002B4632462046FFF7C7FF0028F1D170BDD6
:1048C00070B505460E46E7480068C068C468201DFC
:1048D000FCF770FF94F8280000F0040028B132467D
:1048E00029462046FFF7D8FF05E094F8280000F09D
:1048F000FE0084F828002046216A884770BD70B504
:1049000008E0D8480068C06804684FF0FF312046CE
:10491000FFF7D6FFD3480068006808B9012000E01F
:1049200000200028EDD0CF480568CD480068CD496B
:104930000860CB48056070BD70B50446FEF7E2FE26
:104940000546C9480068854204D2FFF7D8FF012018
:10495000206001E000202060C3480560284670BD4B
:104960007FB57FE0019800287CDB039C606908B973
:10497000012000E0002010B9201DFCF71BFF684655
:10498000FFF7DAFF054601980A2869D2DFE800F050
:104990006805072E365806082F3700BF00BF00BF36
:1049A00094F8280040F0010084F828000298A269D9
:1049B000811803462A462046FFF746FFA8B194F81F
:1049C000280000F0040038B10298A26981182A4634
:1049D0002046FFF761FF05E094F8280000F0FE0094
:1049E00084F828002046216A88473AE000BF94F8FE
:1049F000280000F0FE0084F8280032E000BF94F8A0
:104A0000280040F0010084F828000298A061A06905
:104A100008B1012000E0002050B900BF502080F311
:104A20001188BFF34F8FBFF36F8F00BF00BFFEE74A
:104A3000A06941192B462A462046FFF705FF10E0E2
:104A400094F8280000F0020018B9204600F013FB8B
:104A500005E094F8280000F0FE0084F8280000E04B
:104A600000BF00BF002201A980480068FDF762FB7B
:104A700000287FF477AF7FBDF8B505460C46FEF7FA
:104A80004EFA6846FFF758FF0646009820BB44B927
:104A9000B54206D8FEF748F931462846FFF710FF21
:104AA0001CE03CB16E480068006808B9012000E0D5
:104AB00000200446A91B22466C480068FDF774FEDE
:104AC000FEF732F950B94FF0805069490860BFF3E2
:104AD0004F8FBFF36F8F01E0FEF726F9F8BD014657
:104AE000604A126812680AB9012200E000220A60D6
:104AF0000A6822B95B4A1268D268106800E0002098
:104B0000704708B500BF6846FFF7E9FF0446204636
:104B10000099FFF7B1FFFFF723FFF4E710B500F0AE
:104B20004EFC52480068D0B95248FCF70DFE52487E
:104B3000FCF70AFE4F484B4908604F484849086057
:104B400000220C210A20FCF7C9FE484908600846EB
:104B5000006820B149A145480068FDF7D8FD00F084
:104B600055FC10BD1CB50024FFF7D8FF3F48006876
:104B700058B14448022100234FF48272CDE900105D
:104B800041A14348FDF728FF044654B900BF502017
:104B900080F31188BFF34F8FBFF36F8F00BF00BF4B
:104BA000FEE720461CBD2DE9F04706460D46174698
:104BB0009846DDE908940DB1012000E0002050B9CD
:104BC00000BF502080F31188BFF34F8FBFF36F8F6A
:104BD00000BF00BFFEE7FFF7A1FF2660A561C4F894
:104BE0001C80C4F82090201DFCF7BBFD2FB194F869
:104BF000280040F0040084F82800BDE8F0872DE983
:104C0000FC4705460E4617469846DDF828902C20AE
:104C100000F0A5F9044654B1002084F8280043466A
:104C20003A4631462846CDE90094FFF7BCFF2046BE
:104C3000BDE8FC872DE9FE4304460D4616461F4697
:104C4000DDF828804FF0000924BB00BF502080F31E
:104C50001188BFF34F8FBFF36F8F00BF00BFFEE718
:104C600074000020700000208000002078000020E8
:104C700004ED00E07C02002090020020546D72518F
:104C8000000000007C000020546D72205376630009
:104C9000034B00088148006810B300950196029408
:104CA000062D15DAFFF782F8022808D100234246C4
:104CB00069467A480068FCF7D1FE814610E000237F
:104CC0001A46694675480068FCF7C8FE814607E049
:104CD00000233A46694671480068FDF7FAF88146B4
:104CE0004846BDE8FE836E48006808B1012000E038
:104CF000002050B900BF502080F31188BFF34F8FC0
:104D0000BFF36F8F00BF00BFFEE7654800687047C4
:104D100001460A4651B900BF502080F31188BFF305
:104D20004F8FBFF36F8F00BF00BFFEE790697047E2
:104D300070B505460E462C4655B900BF502080F38D
:104D40001188BFF34F8FBFF36F8F00BF00BFFEE727
:104D500000F035FB36B194F8280040F0040084F8E8
:104D6000280005E094F8280000F0FB0084F82800F3
:104D700000F04CFB70BD70B50446264654B900BF28
:104D8000502080F31188BFF34F8FBFF36F8F00BFA8
:104D900000BFFEE700F013FB96F8280000F00400C7
:104DA00008B9002500E0012500F030FB284670BD61
:104DB00010B504462046FFF7DEFF10BD10B50146D2
:104DC0000A4651B900BF502383F31188BFF34F8FB8
:104DD000BFF36F8F00BF00BFFEE7506810BD0146F4
:104DE0000A4651B900BF502080F31188BFF34F8F9E
:104DF000BFF36F8F00BF00BFFEE71068704770B54C
:104E00000446264654B900BF502080F31188BFF3F2
:104E10004F8FBFF36F8F00BF00BFFEE700F0CFFAE8
:104E200096F8280000F0010008B9002500E00125EF
:104E300000F0ECFA284670BD70B50446254654B91A
:104E400000BF502080F31188BFF34F8FBFF36F8FE7
:104E500000BF00BFFEE700F0B2FAEE6900F0D6FA3C
:104E6000304670BD70B504460D46264654B900BFA5
:104E7000502080F31188BFF34F8FBFF36F8F00BFB7
:104E800000BFFEE700F09BFAF56100F0BFFA70BDCD
:104E90000146486A70474162704700007800002070
:104EA0007C00002010B50146BF4800E000680368A0
:104EB0008B42FBD30246436813448B4204D14368C0
:104EC0004C682344436001460A464B681344046817
:104ED000A34211D1B54C03682468A34208D04B68A3
:104EE0000468646823444B6003681B680B6005E03A
:104EF000AE4B1B680B6001E003680B60884200D07A
:104F0000016010BD30B54FF49633A94800F0070496
:104F10002CB1C01D20F00700A54C041B1B1B024632
:104F2000A14C22600024A04D6C60D018083820F0FD
:104F300007009E4C206000249C4D2D686C609B4DAA
:104F40002D682C601146441A4C60984C24680C6003
:104F5000984D4C682C60984D4C682C6030BD2DE904
:104F6000F04705464FF00009FDF7D9FF8F4800686C
:104F700008B9FFF7C7FF75B105F00700C0F11008C9
:104F8000C8F1FF30A84201D2012000E0002008B99A
:104F9000454400E00025012000EBE570002853D0D7
:104FA000002D51D08448006885424DD87E4E304651
:104FB000046801E0264624686068A84202D220689E
:104FC0000028F7D17948006884423DD0306800F16C
:104FD0000809206830606068401B102819D96719DB
:104FE00007F0070008B9012000E0002050B900BF19
:104FF000502080F31188BFF34F8FBFF36F8F00BF36
:1050000000BFFEE76068401B786065603846FFF7C8
:1050100049FF694960680968081A674908600846D5
:10502000006864490968884203D26348006861499E
:105030000860606840F000406060002020605F48C9
:105040000068401C5D490860FDF76EFE09F007002E
:1050500008B9012000E0002050B900BF502080F3C3
:105060001188BFF34F8FBFF36F8F00BF00BFFEE704
:105070004846BDE8F08770B506463546002E3BD061
:10508000083D2C466068C00F50B900BF502080F327
:105090001188BFF34F8FBFF36F8F00BF00BFFEE7D4
:1050A000206808B9012000E0002050B900BF50205E
:1050B00080F31188BFF34F8FBFF36F8F00BF00BF26
:1050C000FEE76068C00FB8B12068A8B9606820F03A
:1050D00000406060FDF723FF3749606809680844B5
:1050E000354908602046FFF7DDFE35480068401C62
:1050F00033490860FDF718FE70BD2F4800687047FF
:105100002C4800687047704770B504460D4600266D
:1051100034B1701EB0FBF4F0A84201D2012000E0CF
:10512000002050B904FB05F0FFF719FF064626B131
:1051300004FB05F1304600F040FA304670BD2DE921
:10514000F04104464FF000080026771EFDF7E7FE09
:10515000154805687DB10AE008F101086868B042A9
:1051600000D96E686868B84200D26F682D680F4831
:1051700000688542F0D1FDF7D7FD6660A760C4F8EE
:105180000C8000F01CF90C48006820600B48006897
:1051900060610B480068A06106480068206100F06B
:1051A00035F9BDE8F0810000840000208C0000206B
:1051B000A40200209400002090000020980000200D
:1051C0009C000020C6480068401C08B9012000E08F
:1051D000002050B900BF502080F31188BFF34F8FDB
:1051E000BFF36F8F00BF00BFFEE700BF502080F30A
:1051F0001188BFF34F8FBFF36F8F00BF00BFFEE773
:10520000001F4FF080730360001F21F00103036053
:10521000001FB44B036014380260001F6FF00203DC
:1052200003602038704700204FF0E021086188615A
:10523000AD4800684FF47A71B0FBF1F0401E4FF0BA
:10524000E02148610720086170471CB5A748006845
:10525000A749884201D0012000E0002050B900BFDA
:10526000502080F31188BFF34F8FBFF36F8F00BFC3
:1052700000BFFEE79D4800689D49491E884201D055
:10528000012000E0002050B900BF502080F31188B9
:10529000BFF34F8FBFF36F8F00BF00BFFEE795498D
:1052A000084600780190FF200A46107008460078F2
:1052B00000909DF8000000F0F0009DF80020904262
:1052C00001D1012000E0002050B900BF502080F340
:1052D0001188BFF34F8FBFF36F8F00BF00BFFEE792
:1052E0009DF8000000F05000834A10700720834AA8
:1052F000106009E081480068401E804A10609DF8F7
:1053000000004006000E00909DF8000000F08000B4
:105310008028EFD079480068C0F10700042801D147
:10532000012000E0002050B900BF502080F3118818
:10533000BFF34F8FBFF36F8F00BF00BFFEE76F4813
:10534000006800026D4A10601046008800F4E060BA
:105350001060684A0198107064482030006840F47A
:1053600070006249203108600846006840F07040D3
:105370000860FFF758FF002059490860FAF778FFE6
:105380005F48006840F040405D490860FAF75CFF04
:1053900000201CBD52480068B0F57A7F01D1012081
:1053A00000E0002050B900BF502080F31188BFF307
:1053B0004F8FBFF36F8F00BF00BFFEE7704700BF86
:1053C000502080F31188BFF34F8FBFF36F8F00BF62
:1053D00043480068401C42490860084600680128AC
:1053E00013D14248001D0068C0B208B9012000E096
:1053F000002050B900BF502080F31188BFF34F8FB9
:10540000BFF36F8F00BF00BFFEE7704734480068EE
:1054100050B900BF502080F31188BFF34F8FBFF306
:105420006F8F00BF00BFFEE72D480068401E2C496B
:1054300008600846006820B9002080F3118800BF8A
:1054400000BF704710B500BF502080F31188BFF334
:105450004F8FBFF36F8F00BFFDF778FB20B14FF088
:1054600080502249091D086000BF002080F3118888
:1054700000BF10BD70B5FAF733FF0446102C16D3E9
:1054800004F1E02090F8F0531B480078854201DBDE
:10549000012000E0002050B900BF502080F31188A7
:1054A000BFF34F8FBFF36F8F00BF00BFFEE70F4802
:1054B0000C30006800F4E06010490968884201D8A7
:1054C000012000E0002050B900BF502080F3118877
:1054D000BFF34F8FBFF36F8F00BF00BFFEE770BDFC
:1054E000A0000020C55100080000002000ED00E0F1
:1054F00071C20F4100E400E0A4000020A8000020D9
:1055000034EF00E0704700000FB4044910B503AA5F
:10551000029800F09FF810BC5DF814FB1800002002
:10552000032A40F2308010F0030C00F0158011F8CF
:10553000013BBCF1020F624498BF11F801CB00F8A7
:10554000013B38BF11F8013BA2F1040298BF00F8FB
:1055500001CB38BF00F8013B11F0030300F08C8051
:10556000083AC0F0088051F8043B083A51F804CBDF
:10557000A0E80810F5E7121D5CBF51F8043B40F8A5
:10558000043BAFF30080D20724BF11F8013B11F8B0
:1055900001CB48BF11F8012B24BF00F8013B00F8F4
:1055A00001CB48BF00F8012B704702F0FF0343EA2C
:1055B000032242EA024200F002B84FF0000204293E
:1055C000C0F0128010F0030C00F01B80CCF1040C32
:1055D000BCF1020F18BF00F8012BA8BF20F8022B66
:1055E000A1EB0C0100F00DB85FEAC17C24BF00F80C
:1055F000012B00F8012B48BF00F8012B70474FF03A
:10560000000200B5134694469646203922BFA0E812
:105610000C50A0E80C50B1F12001BFF4F7AF09071E
:1056200028BFA0E80C5048BF0CC05DF804EB89000F
:1056300028BF40F8042B08BF704748BF20F8022B52
:1056400011F0804F18BF00F8012B7047704770476A
:1056500070477047074B70B50D467B4400F043F828
:105660000446284600F052F810B14FF0FF3070BDEC
:10567000204670BD3BB1FFFF10B5203AC0F00B8053
:10568000B1E81850203AA0E81850B1E81850A0E846
:105690001850BFF4F5AF5FEA027C24BFB1E81850A0
:1056A000A0E8185044BF18C918C0BDE810405FEA10
:1056B000827C24BF51F8043B40F8043B08BF70478C
:1056C000D20728BF31F8023B48BF11F8012B28BF91
:1056D00020F8023B48BF00F8012B704701694A1CC3
:1056E00002610878704700B58FB0CDE90131002123
:1056F000059105497944CDE903101146684600F04B
:105700002EF80FB000BD0000E5FFFFFF007B00F0AA
:1057100080007047754600F03FF8AE4605006946C8
:10572000534620F00700854618B020B5FBF7E8F88F
:10573000BDE820404FF000064FF000074FF0000892
:105740004FF0000B21F00701AC46ACE8C009ACE813
:10575000C009ACE8C009ACE8C0098D4670472DE926
:10576000F04106460024D6E90170F56880463046CF
:1057700003E04146B847641C3046A8470028F8D1EA
:105780002046BDE8F08110B50446AFF30080204606
:10579000BDE81040FAF741BD00487047A42E012033
:1057A0004FF04070E1EE100A70470000CC5700083F
:1057B00000000020AC000000C40100087858000878
:1057C000AC0000205C340100E0010008007A030A0C
:1057D00000000000000000000102030406070809A1
:1057E00000000000000000000000000000000102B6
:1057F000030401020304060708090000000000007A
:105800000000000000000000000000000000000098
:105810000000000000000000000000000000000088
:105820000000000000000000000000000000000078
:105830000000000004000000000000000000000064
:105840000000000000000000000000000000000058
:105850000000000000000000000000000000000048
:10586000000000000000000000000000AAAAAAAA90
:08587000000000000000000030
:040000050800018965
:00000001FF
